:020000040800F2
:100000004804002045010008410B00086F0A000861
:100010003D0B00082F020008A90F00080000000097
:10002000000000000000000000000000010D0008BA
:100030002F08000800000000C90B0008ED0D0008A3
:100040005F0100085F0100085F0100085F01000810
:100050005F0100085F0100085F0100085F01000800
:100060005F0100085F0100085F0100085F010008F0
:100070005F0100085F0100085F0100085F010008E0
:100080005F0100085F0100085F0100085F010008D0
:10009000650F00085F0100085F0100085F010008AC
:1000A0005F0100085F0100085F0100085F010008B0
:1000B0005F0100085F0100085F0100085F010008A0
:1000C0005F0100085F0100085F0100085F01000890
:1000D0005F0100085F0100085F0100085F01000880
:1000E0005F0100085F0100085F0100085F01000870
:1000F0005F0100085F0100085F0100085F01000860
:100100005F0100085F0100085F0100085F0100084F
:100110005F0100085F0100085F0100085F0100083F
:100120005F0100085F0100085F0100085F0100082F
:10013000DFF80CD000F04AF80048004785140008AA
:10014000480400200648804706480047FEE7FEE7CF
:10015000FEE7FEE7FEE7FEE7FEE7FEE7FEE7FEE777
:10016000F10D0008310100082DE9F05F054600207F
:1001700092469B4688460646814640241BE0284618
:1001800041464746224600F042F853465A46C01AB6
:10019000914110D311461846224600F029F82D1A35
:1001A00067EB01084F4622460120002100F020F8AD
:1001B00017EB00094E41201EA4F10104DFDC484684
:1001C00031462A464346BDE8F09F0000064C074DE5
:1001D00006E0E06840F0010394E807009847103417
:1001E000AC42F6D3FFF7A8FFD4170008F4170008B5
:1001F000202A04DB203A00FA02F1002070479140E7
:10020000C2F1200320FA03F3194390407047202ADB
:1002100004DB203A21FA02F00021704721FA02F3B0
:10022000D040C2F12002914008431946704700BFF8
:10023000FEE710B500F0D0F800F0B6F900F084F950
:1002400000F0A2F810BD000010B504460B4884422F
:1002500009D10121480600F0C9FC00214FF00070CF
:1002600000F0C4FC08E00121880600F0BFFC00217A
:100270004FF0806000F0BAFC10BD00000064004048
:1002800010B50021837A012202FA03F13D4A126877
:1002900042F001023B4B1A603A4A1C3212688A4310
:1002A000384B1C331A60027BCAB9364A0C321268CA
:1002B0008A43344B0C331A604288C38842EA0343B2
:1002C000304A4032847A42F834300288838842EAE5
:1002D00003432C4A4032847A02EBC4025360027B0F
:1002E000012A19D1274A0C3212680A43254B0C33D4
:1002F0001A604288038842EA0343224A4032847AE1
:1003000042F83430C288838842EA03431D4A4032AF
:10031000847A02EBC4025360C27A3AB9194A121DB8
:1003200012688A43174B1B1D1A6006E0154A121DFE
:1003300012680A43134B1B1D1A60028932B9114A15
:10034000143212688A430F4B14331A600289012A4F
:1003500006D10C4A143212680A430A4B14331A604D
:10036000427B012A06D1074A1C3212680A43054B18
:100370001C331A60034A126822F00102014B1A6012
:1003800010BD0000006600401FB500208DF80A0077
:100390008DF80B0001208DF80C000020ADF8000056
:1003A00049F6A400ADF802004FF6FF70ADF8040066
:1003B000ADF806000020ADF8080001208DF80D0012
:1003C0006846FFF75DFF01220221024800F028F88D
:1003D0001FBD00000064004008B50121092000F0A5
:1003E00015FC4FF40070ADF8000018208DF80300E4
:1003F00069460A4800F05CFA4FF48070ADF80000DE
:1004000048208DF803006946044800F051FA0121A4
:100410004FF4EA1000F0D8FA08BD0000000C0140CB
:100420001AB143690B43436102E043698B43436163
:10043000704730B5024600200023146824F00204FF
:100440001460146844F00104146000E05B1C5468FC
:1004500004F001041CB94FF6FF74A342F6D15468AE
:1004600004F001040CB900206CE08C79012C04D15B
:10047000146844F08004146003E0146824F08004DD
:100480001460CC79012C04D1146844F04004146049
:1004900003E0146824F0400414600C7A012C04D1A9
:1004A000146844F02004146003E0146824F020046D
:1004B00014604C7A012C04D1146844F010041460C8
:1004C00003E0146824F0100414608C7A012C04D129
:1004D000146844F00804146003E0146824F008046D
:1004E0001460CC7A012C04D1146844F00404146024
:1004F00003E0146824F0040414608C78A407CD7819
:1005000044EA05640D7944EA05444D7944EA05540A
:100510000D886D1E2C43D461146824F0010414600E
:10052000002300E05B1C546804F001041CB14FF68A
:10053000FF74A342F6D1546804F001040CB100200A
:1005400000E0012030BD00000EB50121480600F09A
:100550003DFB1448FFF778FE684600F0C5F8002020
:100560008DF8060001208DF807008DF808000020A6
:100570008DF809008DF80A008DF80B0001208DF828
:1005800002008DF8030004208DF8040002208DF88D
:1005900005000520ADF8000069460248FFF749FF55
:1005A0000EBD00000064004008B54FF4C06000F0CC
:1005B00001FB14208DF8000000208DF801008DF85B
:1005C000020001208DF80300684600F0BBFA08BD68
:1005D00010B500F5D87303EB01131B6803F0040397
:1005E0001372137A53B900F5D87303EB01131B6828
:1005F00040F2FF7404EA5353136009E000F5D87326
:1006000003EB01131B686FF0604404EAD3035360EB
:1006100000F5D87303EB01131B6803F00203537258
:1006200000F5D87303EB01135B6803F00F039372BB
:1006300000F5D87303EB01135B681B0AD37400F554
:10064000D87303EB01139B68D37200F5D87303EBE7
:1006500001139B681C0A147300F5D87303EB011394
:100660009B681C0C547300F5D87303EB01139B6853
:100670001B0E937300F5D87303EB0113DB68D37380
:1006800000F5D87303EB0113DB681C0A147400F542
:10069000D87303EB0113DB681C0C547400F5D8739A
:1006A00003EB0113DB681B0E937421B9C36843F09D
:1006B0002003C36003E0036943F02003036110BD1E
:1006C000002141F21432426004220272002242727E
:1006D0000822827200BF04E000F10B0251544A1C50
:1006E000D1B20829F8DB704700218171C171017214
:1006F00041728172C1728170C17003210171022146
:10070000417101210180704710B5024600209368B5
:1007100003F08063B3F1806F00D110E0936803F0C1
:100720000063B3F1006F01D1012008E0936803F08A
:100730008053B3F1805F01D1022000E0042004283F
:1007400074D002F5C07303EB00131B6803F00104BF
:1007500002F5C07303EB00131C600B7A7BB94B7A74
:100760000C8843EA445302F5C07404EB0014246877
:10077000234302F5C07404EB0014236010E00B7AED
:100780004C6843EAC4034C7A234302F5C07404EB7B
:1007900000142468234302F5C07404EB00142360A2
:1007A0008B7A03F00F038B7202F5C07303EB001317
:1007B0005B6823F00F0402F5C07303EB00135C6069
:1007C00002F5C07303EB00135B688C7A234302F5D8
:1007D000C07404EB001463608B7B1C064B7B44EA03
:1007E00003440B7B44EA0323CC7A234302F5C07411
:1007F00004EB0014A3608B7C1C064B7C44EA03448E
:100800000B7C44EA0323CC7B234302F5C07404EB46
:100810000014E36002F5C07303EB00131B6843F0A0
:10082000010402F5C07303EB00131C6010BD704798
:1008300000B585B00121042000F0E8F9012188030A
:1008400000F0E4F94FF40070ADF8100018208DF8B6
:10085000130003208DF8120004A9134800F028F8B3
:100860004FF48060ADF8100004208DF8130004A947
:100870000D4800F01DF84FF4E13000900020ADF875
:100880000400ADF80600ADF80800ADF80C000C202F
:10089000ADF80A006946054800F0F4FA0121034862
:1008A00000F0D6FA05B000BD000801400038014054
:1008B0002DE9F041024600250026002000230024F7
:1008C000002791F803C00CF00F0591F803C00CF05D
:1008D000100CBCF1000F03D091F802C04CEA0505E2
:1008E00091F800C0BCF1000F31D0146800202BE05B
:1008F0004FF0010C0CFA00F3B1F800C00CEA03064B
:100900009E4220D183004FF00F0C0CFA03F7BC433A
:1009100005FA03FC4CEA040491F803C0BCF1280F6B
:1009200006D14FF0010C0CFA00FCC2F814C00AE02A
:1009300091F803C0BCF1480F05D14FF0010C0CFA3F
:1009400000FCC2F810C0401C0828D1D31460B1F8D4
:1009500000C0BCF1FF0F34DD546800202EE000F130
:10096000080C4FF0010808FA0CF3B1F800C00CEACB
:1009700003069E4221D183004FF00F0C0CFA03F7BF
:10098000BC4305FA03FC4CEA040491F803C0BCF133
:10099000280F05D100F1080C08FA0CF8C2F81480F1
:1009A00091F803C0BCF1480F07D100F1080C4FF0DB
:1009B000010808FA0CF8C2F81080401C0828CED3B1
:1009C0005460BDE8F0810000F0B50A460023002421
:1009D0000021002500F00046B6F1004F02D11D4E67
:1009E000F16901E01B4E7168C0F3034583B200F466
:1009F0004016B6F5401F08D121F07061154E76689B
:100A000026F07066134F7E6012E000F48016B6F593
:100A1000801F06D1032606FA05F4A14341F0706158
:100A200006E0460D360103FA06F6B14341F0706167
:100A300022B1460D360103FA06F6314300F00046B6
:100A4000B6F1004F02D1034EF16101E0014E716039
:100A5000F0BD0000000001400246002093680B40FA
:100A60000BB1012000E0002070470161704700BF1A
:100A7000FEE7000008B50121142000F0C7F80120AE
:100A8000ADF8000004208DF8030069460748FFF721
:100A90000FFF4FF40050ADF8000004208DF8030064
:100AA00069460348FFF704FF08BD00000008014045
:100AB0000010014070B504460D4629462046FFF758
:100AC000CBFF012808D100BF29462046FFF7C4FF0D
:100AD0000128F9D0012070BD0020FCE708B50121F4
:100AE000082000F093F82020ADF8000010208DF8C9
:100AF000030003208DF8020069460F48FFF7D8FE77
:100B00000120ADF8000069460B48FFF7D1FE022036
:100B1000ADF8000069460848FFF7CAFE20210648E4
:100B2000FFF7A3FF01210448FFF79FFF02210248BE
:100B3000FFF79BFF08BD0000000C014000BFFEE76F
:100B40007047000070B5002100230F22C47804B361
:100B5000154C246804F4E064C4F5E064210AC1F192
:100B60000403CA40447804FA03F184781440214312
:100B700009010E4C0678A155047804F01F050124E4
:100B8000AC4005786D11AD0005F1E025C5F80041D8
:100B900009E0047804F01F050124AC40044D0678F8
:100BA000761145F8264070BD0CED00E000E400E051
:100BB00080E100E002490143024A116070470000F1
:100BC0000000FA050CED00E07047000029B1064A6C
:100BD000D2690243044BDA6104E0034AD2698243DA
:100BE000014BDA61704700000010024029B1064A4B
:100BF00012690243044B1A6104E0034A12698243FA
:100C0000014B1A61704700000010024029B1064AEA
:100C100092690243044B9A6104E0034A9269824359
:100C2000014B9A61704700000010024030B500216E
:100C30000022002400232D4D6D6805F00C0121B128
:100C4000042905D0082923D105E0294D056022E0BB
:100C5000274D05601FE0254D6D6805F47012234D8A
:100C60006D6805F48034022505EB92421CB9214DD4
:100C7000554305600BE01D4D6D6805F400351DB151
:100C80001C4D5543056002E0194D5543056002E0D7
:100C9000174D056000BF00BF144D6D6805F0F001F1
:100CA0000909154D6B5C0568DD4045600F4D6D68A9
:100CB00005F4E061090A104D6B5C4568DD40856014
:100CC0000A4D6D6805F46051C90A0B4D6B5C4568AF
:100CD000DD40C560054D6D6805F44041890B074D49
:100CE0006B5CC568B5FBF3F5056130BD00100240D3
:100CF00000127A0000093D000000002010000020D2
:100D0000704710B500F002F810BD00000CB50020CF
:100D1000019000903348006840F480303149086009
:100D200000BF3048006800F4003000900198401C7B
:100D30000190009818B90198B0F5A06FF1D1294839
:100D4000006800F4003010B10120009001E00020A4
:100D500000900098012843D12348006840F010001B
:100D6000214908600846006820F003000860084632
:100D7000006840F0020008601A484068194948605D
:100D80000846406848600846406840F48060486013
:100D90000846406820F47C1048600846406840F4EB
:100DA000E81048600846006840F08070086000BFA6
:100DB0000C48006800F000700028F9D0094840682D
:100DC00020F00300074948600846406840F00200F0
:100DD000486000BF0348406800F00C000828F9D1C3
:100DE0000CBD0000001002400020024070470000CF
:100DF00010B51348006840F001001149086008462A
:100E00004068104908400E494860084600680E498D
:100E100008400B4908600846006820F480200860FC
:100E20000846406820F4FE0048604FF41F008860C8
:100E3000FFF767FF4FF000600449086010BD000035
:100E4000001002400000FFF8FFFFF6FE08ED00E092
:100E500021B1828942F40052828104E082894DF6F8
:100E6000FF731A408281704702460020B1F5007F6F
:100E700000D100BF13880B400BB1012000E000201F
:100E8000704700002DE9F04786B005460E46002465
:100E9000A24600BFA1460027B08900B100BF2F467F
:100EA0002C8A4CF6FF700440F08804432C82AC89F5
:100EB0004EF6F3100440B088318908437189084325
:100EC0000443AC81AC8A4FF6FF400440B089044330
:100ED000AC8201A8FFF7AAFE1F48874202D1DDF8C5
:100EE00010A001E0DDF80CA0A88900F4004040B19A
:100EF0000AEBCA0000EB0A1031684900B0FBF1F8B8
:100F000007E00AEBCA0000EB0A1031688900B0FB69
:100F1000F1F86420B8FBF0F004012009642101FB22
:100F20001089A88900F4004040B1322000EBC900CC
:100F3000B0FBF1F000F00700044308E0322000EBC2
:100F400009106421B0FBF1F000F00F0004432C8184
:100F500006B0BDE8F087000000380140C1F3080288
:100F60008280704710B50D4A00210D48FFF730FB15
:100F70000A48406841F2143188420BD10748007A90
:100F8000042807D10548807A082803D101200549A3
:100F9000086002E000200349086010BD3000002016
:100FA000006400401400002000BFFEE70FB4054BB2
:100FB00010B503A9044A029800F018F810BC5DF8B7
:100FC00014FB0000611400081800002002E008C8AB
:100FD000121F08C1002AFAD170477047002001E0B3
:100FE00001C1121F002AFBD1704700002DE9FF4FFD
:100FF0008DB00F460546002606E025280BD0DDE91A
:101000000F1290476D1C761C28780028F5D111B07E
:101010003046BDE8F08F0024A246A1460122EC49EB
:1010200000E0044315F8013F203B02FA03F00842B8
:10103000F7D128782A2810D06FF02F022878A0F155
:101040003001092914D80AEB8A0102EB410144F06E
:10105000020400EB010A6D1CF0E701CF5FEA000A11
:1010600003D544F40054CAF1000A44F002046D1C94
:1010700028782E2817D115F8010F44F004042A28E7
:101080000ED06FF02F022878A0F1300109290AD87C
:1010900009EB890102EB410100EB01096D1CF2E74C
:1010A00057F8049B6D1C28786C280FD006DC4C2860
:1010B00017D068280DD06A2814D104E0742810D005
:1010C0007A280FD10DE044F400140AE044F48014AF
:1010D00001E044F440146978814202D104F580149F
:1010E0006D1C6D1C2A786E2A1FD00CDC632A31D04F
:1010F00004DC002A8BD0582A11D1A3E0642A68D0DE
:10110000692A0CD165E0732A2ED004DC6F2A73D0D3
:10111000702A04D19BE0752A6FD0782A6ED01046D1
:10112000DDE90F129047761C50E1C4F3025002280B
:1011300006D0032809D0042801CF09D0066045E174
:1011400001CFF117C0E9006140E101CF06803DE128
:1011500006703BE117F8040B8DF8000000208DF8B5
:101160000100EB46012003E057F804BB4FF0FF30CD
:1011700061074FF0000102D40DE008F1010188463B
:1011800049450FDA8045F8DB1BF808100029F4D137
:1011900008E008F1010188468142FADB1BF80810DB
:1011A0000029F6D1DDE90F23AAEB0800814621468C
:1011B00000F036F9304400EB080604E0DDE90F12D8
:1011C0001BF8010B9047B8F10108F7D221464846B9
:1011D000F7E00A21C4F302534FF0000B0891022BF1
:1011E00004D001CFC117032B09D00AE0FF1D27F05F
:1011F0000707F7E8020108E032E01FE020E000B254
:10120000C117042B01D140B2C117031E71F10003B5
:1012100007DA4FF0000CD0EB0C006CEB01012D2332
:1012200002E0230504D52B238DF82430012303E0AD
:10123000E30701D02023F7E7984658E00A2110E0A1
:1012400010210EE010204FF0000B08900CE0102150
:101250004FF0000B44F004044FF00809089103E03C
:1012600008214FF0000B0891C4F30253022B04D065
:1012700001CF0021032B06D006E0FF1D27F0070752
:10128000F7E8020103E080B2042B00D1C0B24FF0B6
:10129000000823072BD5702A07D0DDF820C08CF07A
:1012A000100C5CEA0B0C05D00EE040238DF82430C6
:1012B000012308E050EA010306D030238DF82430E2
:1012C0008DF8252002239846DDF820C08CF0080C0C
:1012D0005CEA0B0C0BD150EA010301D1630706D580
:1012E00030238DF824304FF00108A9F10109582A64
:1012F00004D038A20B9208AA0A920BE03AA2F9E7AE
:101300005B46089AFEF730FF0B9B9B5C0A9A521EC5
:101310000A92137050EA0102F2D10A98ADEB000074
:1013200000F1200B600702D524F4803401E04FF077
:101330000109D94502DDA9EB0B0000E0002000EB1C
:101340000B0141440890AAEB010AE00306D4DDE951
:101350000F232146504600F063F806444FF0000981
:1013600008E009A911F80900DDE90F12904709F119
:101370000109761CC145F4DBE0030CD5DDE90F2340
:101380002146504600F04CF8064404E0DDE90F1217
:1013900030209047761C0899481E08900029F5DCFB
:1013A00008E00A980A990078491C0A91DDE90F12B1
:1013B0009047761CBBF10001ABF1010BF1DC21463B
:1013C0005046DDE90F2300F019F806446D1C1BE6BA
:1013D000092801003031323334353637383961620B
:1013E00063646566000000003031323334353637CF
:1013F0003839414243444546000000002DE9F041A0
:10140000044600251E461746880404D405E03946E4
:101410002020B0476D1C641EF9D52846BDE8F08138
:101420002DE9F041044600251E469046C80301D52B
:10143000302700E02027880404D505E041463846DF
:10144000B0476D1C641EF9D52846BDE8F08101B592
:1014500002E00098401E009000980028F9D108BDD5
:1014600070B504460D46E1B20548FFF777FD00BFB1
:1014700080210348FFF7F8FC0028F9D0204670BD12
:1014800000380140FFF72AFBFFF7D2F9FFF7F2FA25
:10149000FEF7CFFE47A0FFF789FD50A0FFF786FDBE
:1014A00057A0FFF783FD5AA0FFF780FD6248FFF7C2
:1014B0007DFD6248FFF77AFD61A0FFF777FD78E0D8
:1014C00001216E48FFF7F6FA012843D120206C492C
:1014D0000860012008600220091D08606948FFF7C4
:1014E000EFF868496848FFF70FF942F21070FFF70C
:1014F000AEFF2020624908600120091D086002201B
:10150000091F086061A0FFF751FD67A0FFF74EFDBE
:101510005C4841686AA0FFF749FD00BF594D0B3593
:101520006EA0FFF743FD00240EE0295D71A0FFF7D8
:101530003DFD601C0A2190FBF1F201FB120010B985
:101540002EA0FFF733FD641C082CEEDB2BA0FFF769
:101550002DFD00BF6948006801282AD12020484994
:1015600008600120091D08600220091F086064A0AE
:10157000FFF71CFD00BF674D58A0FFF717FD0024C3
:101580000EE0295D5BA0FFF711FD601C0A2190FBB6
:10159000F1F201FB120010B918A0FFF707FD641C5F
:1015A000082CEEDB15A0FFF701FD00BF002053491A
:1015B000086085E70D0A20BBB6D3ADCAB9D3C3B165
:1015C000FCBBF02069534F2053544D333220BFAA47
:1015D000B7A2B0E5A1A30D0A000000000D0A20B1DA
:1015E000FCBBF0463432392043414ECDA8D1B6BBC6
:1015F000D8BBB7CAB5D1E9C0FDB3CC0D0A00000015
:101600000D0A20CAB5D1E9B2BDD6E8A3BA0D0A00C9
:101610000D0A20312ECAB9D3C3BBD8BBB7C4A3CAE5
:10162000BDA3ACB2BBD0E8D2AAC1ACBDD3CDE2B2AF
:10163000BFD0BEC6AC0D0A0064170008181700081A
:101640000D0A20342EB1BEC0FDD6D0B5C463616E84
:10165000B2A8CCD8C2CACEAA314D427073A3ACCEC8
:10166000AA73746D3332B5C463616ED7EEB8DFCB45
:10167000D9C2CAA1A3200D0A000000000008014041
:10168000100C01401C000020006400400D0AD2D163
:10169000CAB9D3C343414EB7A2CBCDCAFDBEDDB05C
:1016A000FCA3A10D0A0000000D0AB7A2CBCDB5C462
:1016B000B1A8CEC4C4DAC8DDCEAAA3BA0D0A000010
:1016C0000D0A20C0A9D5B94944BAC5457874496402
:1016D000A3BA30782578200D0A0000003C3C2D4349
:1016E000414E2D44454255472D41525241592D3EC0
:1016F0003E0A00002530327820202000140000200F
:101700000D0A43414EBDD3CAD5B5BDCAFDBEDDA34A
:10171000BA0D0A003B0000200D0A20332EC8F4BF8A
:10172000AAB7A2B0E5B5C443414EBDD3CAD5B5BD35
:10173000C0A9D5B94944CEAA307831333134B5C4C3
:10174000CAFDBEDDB0FCA3ACBBE1B0D1CAFDBEDDBD
:10175000D2D4B4F2D3A1B5BDB4AEBFDAA1A3200DEB
:101760000A0000000D0A20322EB0B4CFC2BFAAB7C3
:10177000A2B0E5B5C44B455931BCFCA3ACBBE1CA32
:10178000B9D3C343414ECFF2CDE2B7A2CBCD302D7A
:1017900037B5C4CAFDBEDDB0FCA3ACB0FCB5C4C057
:1017A000A9D5B94944CEAA3078313331342028D371
:1017B000C9D3DABBD8BBB7C4A3CABDA3ACCAC7D709
:1017C000D4BCBAB7A2CBCDB8F8D7D4BCBA290D0ACD
:1017D00000000000F4170008000000201C000000BA
:1017E000CC0F0008101800081C0000202C0400007A
:1017F000DC0F0008000000000102030401020304E2
:1018000006070809020406080000000000000000A6
:0400000508000131BD
:00000001FF
