:020000040800F2
:100000005004002045010008B90D0008110D00083A
:10001000B50D00088D010008351200080000000031
:10002000000000000000000000000000790F000840
:10003000E30A000800000000410E000865100008F7
:100040005F0100085F0100085F0100085F01000810
:100050005F0100085F0100085F0100085F01000800
:100060005F0100085F0100085F0100085F010008F0
:100070005F0100085F0100085F0100085F010008E0
:100080005F0100085F0100085F0100085F010008D0
:10009000DD1100085F0100085F0100085F01000832
:1000A0005F0100085F0100085F0100085F010008B0
:1000B0005F0100085F0100085F0100085F010008A0
:1000C0005F0100085F0100085F0100085F01000890
:1000D0005F0100085F0100085F0100085F01000880
:1000E0005F0100085F0100085F0100085F01000870
:1000F0005F0100085F0100085F0100085F01000860
:100100005F0100085F0100085F0100085F0100084F
:100110005F0100085F0100085F0100085F0100083F
:100120005F0100085F0100085F0100085F0100082F
:10013000DFF80CD000F018F80048004785130008DD
:10014000500400200648804706480047FEE7FEE7C7
:10015000FEE7FEE7FEE7FEE7FEE7FEE7FEE7FEE777
:100160006910000831010008064C074D06E0E06800
:1001700040F0010394E8070098471034AC42F6D3EE
:10018000FFF7DAFF201400084014000800BFFEE764
:10019000B1F5007F3AD00FDC202928D006DC0129F8
:1001A0001CD004291DD0082940D11DE0402921D0B0
:1001B000B1F5807F3AD126E0B1F5004F31D006DCB1
:1001C000B1F5806F25D0B1F5006F2FD124E0B1F5E6
:1001D000803F12D0B1F5003F28D111E0154A82606E
:1001E00025E00822C26022E01022C2601FE008223F
:1001F00002611CE01022026119E00822426016E050
:100200001022426013E00422426010E004224260A7
:100210000DE0042242600AE0002282610422426072
:1002200005E0002282610422426000E000BF00BFBE
:10023000704700000101010010B500F0CFF800F098
:1002400045FA00F013FA00F0A1F810BD10B504460D
:100250000B48844209D10121480600F003FE002129
:100260004FF0007000F0FEFD08E00121880600F06C
:10027000F9FD00214FF0806000F0F4FD10BD00009A
:100280000064004010B50021837A012202FA03F1D4
:100290003D4A126842F001023B4B1A603A4A1C3256
:1002A00012688A43384B1C331A60027BCAB9364A3B
:1002B0000C3212688A43344B0C331A604288C3886C
:1002C00042EA0343304A4032847A42F834300288AA
:1002D000838842EA03432C4A4032847A02EBC40208
:1002E0005360027B012A19D1274A0C3212680A4353
:1002F000254B0C331A604288038842EA0343224AA2
:100300004032847A42F83430C288838842EA034318
:100310001D4A4032847A02EBC4025360C27A3AB971
:10032000194A121D12688A43174B1B1D1A6006E0FA
:10033000154A121D12680A43134B1B1D1A600289CD
:1003400032B9114A143212688A430F4B14331A60BF
:100350000289012A06D10C4A143212680A430A4B58
:1003600014331A60427B012A06D1074A1C321268F4
:100370000A43054B1C331A60034A126822F001023B
:10038000014B1A6010BD0000006600401FB5002040
:100390008DF80A008DF80B0001208DF80C0000206C
:1003A000ADF8000049F6A400ADF802004FF6FF706A
:1003B000ADF80400ADF806000020ADF808000120FB
:1003C0008DF80D006846FFF75DFF0122022102480B
:1003D00000F0B8F81FBD00000064004008B501211E
:1003E000092000F04FFD01214FF4EA1000F046FC17
:1003F0004FF40070ADF8000018208DF80300694636
:10040000074800F0AFFB4FF48070ADF800004820C3
:100410008DF803006946024800F0A4FB08BD000007
:10042000000C014070B504460D4600266069284066
:10043000002871D0B5F5807F5CD010DC082D35D058
:1004400006DC012D20D0022D24D0042D72D127E00E
:10045000102D31D0202D35D0402D6BD138E0B5F5A1
:10046000004F60D009DCB5F5007F49D0B5F5806F4D
:100470004CD0B5F5006F5DD14FE0B5F5803F2DD084
:10048000B5F5003F56D12FE0A0682D4900F020FBC4
:10049000064651E0E068032100F01AFB06464BE0F7
:1004A000E068082100F014FB064645E0E0681021F2
:1004B00000F00EFB06463FE02069032100F008FB38
:1004C000064639E02069082100F002FB064633E0C9
:1004D0002069102100F0FCFA06462DE06068082132
:1004E00000F0F6FA064627E06068102100F0F0FA06
:1004F000064621E0A069012100F0EAFA06461BE069
:10050000A069022100F0E4FA064615E0A069042182
:1005100000F0DEFA06460FE00FE0A069702100F05F
:10052000D7FA064608E06068042100F0D1FA0646D2
:1005300002E0FFE7002600BF00E00026304670BD65
:10054000010101001AB143690B43436102E04369B1
:100550008B434361704730B5024600200023146886
:1005600024F002041460146844F00104146000E0F4
:100570005B1C546804F001041CB94FF6FF74A342DD
:10058000F6D1546804F001040CB900206CE08C79B9
:10059000012C04D1146844F08004146003E0146852
:1005A00024F080041460CC79012C04D1146844F048
:1005B0004004146003E0146824F0400414600C7AD2
:1005C000012C04D1146844F02004146003E0146882
:1005D00024F0200414604C7A012C04D1146844F0F7
:1005E0001004146003E0146824F0100414608C7A82
:1005F000012C04D1146844F00804146003E014686A
:1006000024F008041460CC7A012C04D1146844F05E
:100610000404146003E0146824F0040414608C786B
:10062000A407CD7844EA05640D7944EA05444D7980
:1006300044EA05540D886D1E2C43D461146824F0DF
:1006400001041460002300E05B1C546804F0010402
:100650001CB14FF6FF74A342F6D1546804F00104B4
:100660000CB1002000E0012030BD00000EB50121DA
:10067000480600F0E7FB1448FFF7E8FD684600F085
:1006800084F900208DF8060001208DF807008DF810
:10069000080000208DF809008DF80A008DF80B0085
:1006A00001208DF802008DF8030004208DF804006D
:1006B00002208DF805000420ADF8000069460248CC
:1006C000FFF749FF0EBD00000064004008B54FF47D
:1006D000C06000F0ABFB14208DF8000000208DF806
:1006E00001008DF8020001208DF80300684600F03B
:1006F00065FB08BD70B5024600200BE002F10B035C
:100700001C5C074B1D781B785B1C054E33704C55E9
:10071000431CD8B20828F1DB0123024C237070BDC2
:100720001E0000201800002010B500F5D87303EB60
:1007300001131B6803F004031372137A53B900F515
:10074000D87303EB01131B6840F2FF7404EA5353A0
:10075000136009E000F5D87303EB01131B686FF019
:10076000604404EAD303536000F5D87303EB01132C
:100770001B6803F00203537200F5D87303EB0113F7
:100780005B6803F00F03937200F5D87303EB01135A
:100790005B681B0AD37400F5D87303EB01139B68E5
:1007A000D37200F5D87303EB01139B681C0A147312
:1007B00000F5D87303EB01139B681C0C547300F510
:1007C000D87303EB01139B681B0E937300F5D8736A
:1007D00003EB0113DB68D37300F5D87303EB01134C
:1007E000DB681C0A147400F5D87303EB0113DB6893
:1007F0001C0C547400F5D87303EB0113DB681B0E5B
:10080000937421B9C36843F02003C36003E0036914
:1008100043F02003036110BD2DE9F04106460F4669
:1008200014464FF00008414801780078401E3F4AC6
:10083000107079B12046E11704EB5171C1F3C70183
:100840003B4A1170E11704EB5171C910A4EBC101CF
:10085000384A117038480078012865D13748007847
:10086000012861D0324801780078401E304A10706B
:1008700000291FDD00250BE0314801780078401C7D
:100880002F4A1070795C06F10B004155681CC5B207
:10089000082DF1DB31462B4800F087F806F10B08F4
:1008A00029A000F0C9FC41462CA000F0C5FC0020A6
:1008B000BDE8F0811E480078FF2802D100201C49C5
:1008C00008701C480078082814DA1948007888B99C
:1008D00000250BE01A4801780078401C184A107077
:1008E000795C06F10B004155681CC5B211480078CF
:1008F0008542EFDB12480078844205D10020104980
:10090000087001200D49087031460E4800F04DF87E
:1009100006F10B080CA000F08FFC41460FA000F080
:100920008BFC0020044908700020C1E71D00002056
:100930001B0000201C000020180000201A000020CE
:1009400019000020006400400D0AB7A2CBCDB5C449
:10095000B1A8CEC4C4DAC8DDCEAA3A00257300001F
:10096000002141F2143242600422027200224272DB
:100970000822827200BF05E0002300F10B025354ED
:100980004A1CD1B20829F7DB704700218171C1717F
:10099000017241728172C1728170C1700321017153
:1009A0000221417101210180704710B502460020EB
:1009B000936803F08063B3F1806F00D110E0936817
:1009C00003F00063B3F1006F01D1012008E09368E8
:1009D00003F08053B3F1805F01D1022000E00420D6
:1009E000042874D002F5C07303EB00131B6803F0F6
:1009F000010402F5C07303EB00131C600B7A7BB992
:100A00004B7A0C8843EA445302F5C07404EB00149B
:100A10002468234302F5C07404EB0014236010E043
:100A20000B7A4C6843EAC4034C7A234302F5C07442
:100A300004EB00142468234302F5C07404EB001493
:100A400023608B7A03F00F038B7202F5C07303EB04
:100A500000135B6823F00F0402F5C07303EB00136F
:100A60005C6002F5C07303EB00135B688C7A234370
:100A700002F5C07404EB001463608B7B1C064B7B97
:100A800044EA03440B7B44EA0323CC7A234302F574
:100A9000C07404EB0014A3608B7C1C064B7C44EAFE
:100AA00003440B7C44EA0323CC7B234302F5C0744C
:100AB00004EB0014E36002F5C07303EB00131B6842
:100AC00043F0010402F5C07303EB00131C6010BD7A
:100AD0000246002002EA01030BB1012000E00020E1
:100AE0007047704700B585B00121042000F0CAF9B5
:100AF0000121880300F0C6F94FF40070ADF8100032
:100B000018208DF8130003208DF8120004A9134853
:100B100000F028F84FF48060ADF8100004208DF844
:100B2000130004A90D4800F01DF84FF4E1300090C7
:100B30000020ADF80400ADF80600ADF80800ADF8EF
:100B40000C000C20ADF80A006946054800F0D6FA02
:100B50000121034800F0B8FA05B000BD00080140CB
:100B6000003801402DE9F041024600250026002012
:100B700000230024002791F803C00CF00F0591F822
:100B800003C00CF0100CBCF1000F03D091F802C0B0
:100B90004CEA050591F800C0BCF1000F31D0146893
:100BA00000202BE04FF0010C0CFA00F3B1F800C06C
:100BB0000CEA03069E4220D183004FF00F0C0CFA82
:100BC00003F7BC4305FA03FC4CEA040491F803C0A4
:100BD000BCF1280F06D14FF0010C0CFA00FCC2F852
:100BE00014C00AE091F803C0BCF1480F05D14FF0E2
:100BF000010C0CFA00FCC2F810C0401C0828D1D32C
:100C00001460B1F800C0BCF1FF0F34DD546800205F
:100C10002EE000F1080C4FF0010808FA0CF3B1F8CF
:100C200000C00CEA03069E4221D183004FF00F0C56
:100C30000CFA03F7BC4305FA03FC4CEA040491F8F0
:100C400003C0BCF1280F05D100F1080C08FA0CF81C
:100C5000C2F8148091F803C0BCF1480F07D100F12D
:100C6000080C4FF0010808FA0CF8C2F81080401C7C
:100C70000828CED35460BDE8F0810000F0B50A46E4
:100C8000002300240021002500F00046B6F1004FAB
:100C900002D11D4EF16901E01B4E7168C0F303459E
:100CA00083B200F44016B6F5401F08D121F0706100
:100CB000154E766826F07066134F7E6012E000F4E1
:100CC0008016B6F5801F06D1032606FA05F4A14367
:100CD00041F0706106E0460D360103FA06F6B143B5
:100CE00041F0706122B1460D360103FA06F6314338
:100CF00000F00046B6F1004F02D1034EF16101E071
:100D0000014E7160F0BD00000000014001617047BC
:100D100000BFFEE708B50121142000F0B3F8012060
:100D2000ADF8000028208DF8030069460748FFF75A
:100D300019FF4FF40050ADF8000004208DF80300B7
:100D400069460348FFF70EFF08BD00000008014098
:100D50000010014008B50121082000F093F8202080
:100D6000ADF8000010208DF8030003208DF802007C
:100D700069460F48FFF7F6FE0120ADF8000069460E
:100D80000B48FFF7EFFE0220ADF800006946084867
:100D9000FFF7E8FE20210648FFF7B8FF01210448CD
:100DA000FFF7B4FF02210248FFF7B0FF08BD0000C3
:100DB000000C014000BFFEE77047000070B5002145
:100DC00000230F22C47804B3154C246804F4E064B3
:100DD000C4F5E064210AC1F10403CA40447804FA6E
:100DE00003F184781440214309010E4C0678A15583
:100DF000047804F01F050124AC4005786D11AD00A6
:100E000005F1E025C5F8004109E0047804F01F056C
:100E10000124AC40044D0678761145F8264070BD9B
:100E20000CED00E000E400E080E100E00249014355
:100E3000024A1160704700000000FA050CED00E066
:100E40007047000029B1064AD2690243044BDA61B7
:100E500004E0034AD2698243014BDA617047000023
:100E60000010024029B1064A12690243044B1A617C
:100E700004E0034A12698243014B1A617047000083
:100E80000010024029B1064A92690243044B9A615C
:100E900004E0034A92698243014B9A617047000063
:100EA0000010024030B500210022002400232D4D07
:100EB0006D6805F00C0121B1042905D0082923D162
:100EC00005E0294D056022E0274D05601FE0254D16
:100ED0006D6805F47012234D6D6805F480340225A9
:100EE00005EB92421CB9214D554305600BE01D4DA9
:100EF0006D6805F400351DB11C4D5543056002E0D9
:100F0000194D5543056002E0174D056000BF00BF55
:100F1000144D6D6805F0F0010909154D6B5C05680D
:100F2000DD4045600F4D6D6805F4E061090A104D24
:100F30006B5C4568DD4085600A4D6D6805F4605165
:100F4000C90A0B4D6B5C4568DD40C560054D6D6899
:100F500005F44041890B074D6B5CC568B5FBF3F5A3
:100F6000056130BD0010024000127A0000093D000A
:100F70000000002010000020704710B500F002F8BB
:100F800010BD00000CB500200190009033480068AF
:100F900040F480303149086000BF3048006800F4F8
:100FA000003000900198401C0190009818B90198F9
:100FB000B0F5A06FF1D12948006800F4003010B1FD
:100FC0000120009001E0002000900098012843D10A
:100FD0002348006840F01000214908600846006876
:100FE00020F0030008600846006840F00200086036
:100FF0001A484068194948600846406848600846F1
:10100000406840F4806048600846406820F47C10E6
:1010100048600846406840F4E810486008460068A8
:1010200040F08070086000BF0C48006800F000705D
:101030000028F9D00948406820F0030007494860BB
:101040000846406840F00200486000BF034840681E
:1010500000F00C000828F9D10CBD0000001002407F
:10106000002002407047000010B51348006840F0AF
:1010700001001149086008464068104908400E49BF
:101080004860084600680E4908400B490860084659
:10109000006820F4802008600846406820F4FE00C4
:1010A00048604FF41F008860FFF767FF4FF0006053
:1010B0000449086010BD0000001002400000FFF865
:1010C000FFFFF6FE08ED00E021B1828942F40052F4
:1010D000828104E082894DF6FF731A408281704755
:1010E00002460020B1F5007F00D100BF13880B40FD
:1010F0000BB1012000E00020704700002DE9F0470F
:1011000086B005460E460024A24600BFA146002731
:10111000B08900B100BF2F462C8A4CF6FF70044006
:10112000F08804432C82AC894EF6F3100440B0885A
:1011300031890843718908430443AC81AC8A4FF676
:10114000FF400440B0890443AC8201A8FFF7AAFE27
:101150001F48874202D1DDF810A001E0DDF80CA0A5
:10116000A88900F4004040B10AEBCA0000EB0A1065
:1011700031684900B0FBF1F807E00AEBCA0000EB68
:101180000A1031688900B0FBF1F86420B8FBF0F078
:1011900004012009642101FB1089A88900F40040A2
:1011A00040B1322000EBC900B0FBF1F000F00700C5
:1011B000044308E0322000EB09106421B0FBF1F099
:1011C00000F00F0004432C8106B0BDE8F08700005A
:1011D00000380140C1F308028280704710B5022137
:1011E0001148FFF71FF9E8B102210F48FEF7D0FFC1
:1011F0000E4A00210C48FFF797FA0C48406841F26C
:10120000143188420BD10948007A042807D10748D5
:10121000807A082803D101200549086002E00020F7
:101220000349086010BD0000006400403800002041
:101230001400002000BFFEE70FB4054B10B503A952
:10124000044A029800F017F810BC5DF814FB000087
:10125000611300082000002002E008C8121F08C126
:10126000002AFAD170477047002001E001C1121F27
:10127000002AFBD170472DE9F84F994692468846DF
:101280000546002706E025280AD051464A469047E1
:101290006D1C7F1C28780028F5D13846BDE8F88FF2
:1012A000002315F8011F18462E2915D115F8011F26
:1012B00004232A290DD06FF02F022978A1F13004E0
:1012C000092C09D800EB800002EB400008446D1C9B
:1012D000F3E758F8040B6D1C2A78002ADDD0632A46
:1012E00007D0732A0FD0104651464A4690477F1CBC
:1012F0002AE018F8042B8DF8002000218DF8011049
:101300006E46012103E058F8046B4FF0FF315A0795
:101310004FF0000401D409E0641C84420BDA8C42D3
:10132000FADB325D002AF7D105E0641C8C42FCDB5D
:10133000305D0028F9D1274404E016F8010B51462E
:101340004A469047641EF8D26D1CA3E701B502E03F
:101350000098401E009000980028F9D108BD0000B8
:1013600070B504460D46E1B20548FFF733FF00BFF4
:1013700080210348FFF7B4FE0028F9D0204670BD55
:101380000038014088B018A30FCBCDE90623CDE982
:101390000401FFF7DFFCFFF7A5FBFFF7BBFCFEF73F
:1013A0004BFF1FE01448FFF7DBFA1448006820B930
:1013B0000F2204A91048FFF72FFA1148FFF7C6FFC4
:1013C0000E48006801280DD10EA0FFF735FF6946D1
:1013D0001148FFF78FF9694610A0FFF72DFF002095
:1013E00006490860DEE700003132333435363738DD
:1013F000396162636465000024000020140000204D
:10140000809698000D0A43414EBDD3CAD5B5BDCADA
:10141000FDBEDDA3BA0000003800002025730000E7
:1014200040140008000000202400000058120008AA
:1014300064140008240000202C0400006812000836
:10144000000000000102030401020304060708096A
:101450000204060800000000010000000001000076
:041460000000000088
:0400000508000131BD
:00000001FF
